:020000040800F2
:100000000080012081050008D1050008D105000805
:10001000D1050008D1050008D10500080000000046
:10002000000000000000000000000000D1050008F2
:10003000D105000800000000D105000815180008CF
:10004000D1050008D1050008D1050008D105000838
:10005000D1050008D1050008D1050008D105000828
:10006000D1050008D1050008D1050008D105000818
:10007000D1050008D1050008D1050008D105000808
:10008000D1050008D1050008D1050008D1050008F8
:10009000D1050008D1050008D1050008D1050008E8
:1000A000D1050008D1050008D1050008D1050008D8
:1000B000D1050008D1050008D1050008D1050008C8
:1000C000D1050008D1050008D1050008D1050008B8
:1000D000D1050008D105000825180008D105000841
:1000E000D1050008D1050008D1050008D105000898
:1000F000D1050008D1050008D1050008D105000888
:10010000D1050008D1050008D1050008D105000877
:10011000D1050008D1050008D1050008D105000867
:1001200039180008D1050008D1050008D1050008DC
:10013000D1050008D1050008D1050008D105000847
:10014000D1050008D1050008D10500084D180008A8
:10015000D1050008D1050008D10500086118000884
:10016000D1050008D105000875180008D105000860
:10017000D1050008D1050008D105000800000000E5
:08018000D1050008D1050008BB
:1001900010B5054C237833B9044B13B10448AFF3C1
:1001A00000800123237010BDC40000200000000067
:1001B00058F7000808B5034B1BB103490348AFF3D8
:1001C000008008BD00000000C800002058F70008AB
:1001D00001F0FF01102A2BDB10F0070F08D010F8F8
:1001E000013B013A8B422DD010F0070F42B3F6D1FC
:1001F000F0B441EA012141EA014122F007047FF015
:1002000000070023F0E80256083C85EA010586EA6B
:10021000010685FA47F5A3FA87F586FA47F6A5FAA7
:1002200087F68EB9EED1F0BC01F0FF0102F00702B3
:1002300032B110F8013B013A83EA010313B1F8D15E
:100240000020704701387047002D06BF354603383F
:10025000073815F0010F07D1013015F4807F02BF78
:10026000013015F4C03F0130F0BC0138704700BFC9
:1002700053B94AB9002908BF00281CBF4FF0FF310D
:100280004FF0FF3000F07AB9ADF1080C6DE904CE03
:1002900000F006F8DDF804E0DDE9022304B0704761
:1002A0002DE9F0478C460D460446089E002B51D19F
:1002B0008A4217466DD9B2FA82FEBEF1000F0BD00A
:1002C000CEF1200C01FA0EF520FA0CFC02FA0EF722
:1002D0004CEA050C00FA0EF44FEA174A250CBCFB59
:1002E000FAF81FFA87F90AFB18CC45EA0C4508FB17
:1002F00009F3AB420AD9ED1908F1FF3280F02381EE
:10030000AB4240F22081A8F102083D44ED1AA4B2AC
:10031000B5FBFAF00AFB105544EA054400FB09F965
:10032000A14509D9E41900F1FF3380F00A81A14504
:1003300040F2078102383C44A4EB090440EA08403B
:100340000021002E61D024FA0EF400233460736083
:10035000BDE8F0878B4207D9002E54D0002186E8F3
:1003600021000846BDE8F087B3FA83F1002940F088
:100370008E80AB4202D3824200F2FA80841A65EB8F
:1003800003050120AC46002E3FD086E81010BDE8E2
:10039000F08712B90127B7FBF2F7B7FA87FEBEF173
:1003A000000F34D1EB1B3A0C1FFA87FC0121B3FB81
:1003B000F2F8250C02FB183345EA03450CFB08F361
:1003C000AB4207D9ED1908F1FF3002D2AB4200F27F
:1003D000D1808046ED1AA3B2B5FBF2F002FB1055B6
:1003E00043EA05440CFB00FCA44507D9E41900F1DD
:1003F000FF3302D2A44500F2B8801846A4EB0C04E7
:1004000040EA08409DE731463046BDE8F087CEF12E
:10041000200405FA0EF307FA0EF720FA04F83A0C56
:1004200025FA04F448EA0308B4FBF2F14FEA184550
:1004300002FB11441FFA87FC45EA044501FB0CF35B
:10044000AB4200FA0EF409D9ED1901F1FF3080F04A
:100450008A80AB4240F2878002393D44EB1A1FFA92
:1004600088F5B3FBF2F002FB103345EA034500FBCD
:100470000CF3AB4207D9ED1900F1FF386FD2AB4254
:100480006DD902383D44EB1A40EA01418FE7C1F1D2
:10049000200722FA07F88B4005FA01F448EA030323
:1004A00020FA07FE4FEA134CFD404EEA040EB5FB5E
:1004B000FCF94FEA1E440CFB19551FFA83F844EA75
:1004C000054509FB08F4AC4202FA01F200FA01FA10
:1004D00008D9ED1809F1FF3043D2AC4241D9A9F156
:1004E00002091D442D1B1FFA8EFEB5FBFCF00CFB10
:1004F00010554EEA054400FB08F8A04507D9E4185A
:1005000000F1FF3529D2A04527D902381C4440EA22
:100510000940A4EB0804A0FB02894C45C6464D46A1
:1005200015D312D056B1BAEB0E0364EB050404FAEE
:1005300007F7CB401F43CC40376074600021BDE813
:10054000F0871846F8E69046E0E6C245EAD2B8EBF6
:10055000020E69EB03050138E4E72846D7E7404679
:1005600091E78146BEE7014678E702383C4445E71B
:10057000084608E7A8F102083D442BE7704700BF92
:10058000DFF834D0002103E00C4B5B5843500431BA
:100590000B480C4B42189A42F6D30B4A02E0002358
:1005A00042F8043B094B9A42F9D303F031FD0EF0B7
:1005B0006BFC00F001FDFEE7008001206CF90008F3
:1005C00000000020C4000020C4000020EC1C00201B
:1005D000FEE7000080B58AB000AF1B4B1B4A1A60D3
:1005E000194803F00AFF0346002B03D045211848A1
:1005F00000F004FF00237B600023BB600223FB604C
:1006000001233B6100237B613B1D002219460E48FC
:1006100003F015FF0346002B03D051210C4800F0D6
:10062000EDFE01233B613B1D10221946064803F0F5
:1006300006FF0346002B03D05921054800F0DEFEDB
:1006400000BF2837BD4680BD9001002000740040E7
:1006500070F7000880B485B000AF78607B681B68D5
:100660000A4A93420BD10A4A094B9B6D43F000534F
:100670009365074B9B6D03F00053FB60FB6800BF65
:100680001437BD465DF8047B704700BF007400401E
:100690000010024080B500AF324B334A1A60314B34
:1006A00000221A712F4B00229A602E4B0222DA6030
:1006B0002C4B4FF400521A612A4B00225A61294BED
:1006C00000229A61274B0022DA61264B00221A622F
:1006D000244B00225A62234B01229A62214B0022B2
:1006E000DA62204B00221A631E4803F0AFFF034674
:1006F000002B03D04F211D4800F080FE1C4B1D4AEB
:100700001A601B4B00221A71194B00229A60184B79
:100710000222DA60164B4FF400521A61144B002289
:100720005A61134B00229A61114B0022DA61104B7F
:1007300000221A620E4B00225A620D4B01229A626D
:100740000B4B0022DA620A4B00221A63084803F0BE
:100750007DFF0346002B03D06121044800F04EFECC
:1007600000BF80BDDC0100200060014084F700086C
:10077000A40100202060014080B485B000AF786003
:100780000D4B1B68002B10D10C4A0C4B1B6E43F019
:1007900080731366094B1B6E03F08073FB60FB686C
:1007A000054B1B680133044A136000BF1437BD4674
:1007B0005DF8047B704700BFE0000020001002409D
:1007C00080B582B000AF254A244B9B6C43F00103F7
:1007D0009364224B9B6C03F001037B607B681F4A90
:1007E0001E4B9B6C43F0020393641C4B9B6C03F009
:1007F00002033B603B681A4B1A4A1A60184B0022EE
:100800005A60174B4FF480429A60154B4022DA60D1
:10081000134B80221A61124B00225A61104B0022A6
:100820009A610F4B0022DA610D4B4FF400521A62AD
:100830000B4804F01FF80346002B03D058210A4848
:1008400000F0DCFD00220021382003F068FD382094
:1008500003F081FD00BF0837BD4680BD0010024097
:1008600014020020080002409CF7000880B58CB0FC
:1008700000AF924A914BDB6C43F01003D3648F4B73
:10088000DB6C03F01003BB61BB698C4A8B4BDB6CE8
:1008900043F00403D364894BDB6C03F004037B61F6
:1008A0007B69864A854BDB6C43F08003D364834BC2
:1008B000DB6C03F080033B613B69804A7F4BDB6C60
:1008C00043F00103D3647D4BDB6C03F00103FB6059
:1008D000FB687A4A794BDB6C43F00203D364774BB5
:1008E000DB6C03F00203BB60BB68744A734BDB6CC8
:1008F00043F00803D364714BDB6C03F008037B60A7
:100900007B68002240F209116D4804F04FFD00227F
:100910000C216C4804F04AFD01224FF400716A4832
:1009200004F044FD00224FF40061674804F03EFDEE
:1009300000228021654804F039FD0823FB61012372
:100940003B6200237B620223BB6207F11C03194652
:100950005B4804F06FFA4FF41053FB615C4B3B6251
:1009600000237B6207F11C031946574804F062FA22
:100970000723FB6100233B6200237B6207F11C031A
:100980001946514804F056FA2F23FB6100233B62BD
:1009900002237B6207F11C0319464FF0904004F0DC
:1009A00049FA1023FB614A4B3B6200237B6207F14B
:1009B0001C0319464FF0904004F03CFA0423FB61FD
:1009C00001233B6201237B620323BB6207F11C030B
:1009D00019463C4804F02EFA4FF48073FB61012362
:1009E0003B6201237B620323BB6207F11C031946B0
:1009F000334804F01FFA4FF42063FB6101233B628C
:100A000000237B620023BB6207F11C0319462E48BA
:100A100004F010FA0523FB612D4B3B6200237B623F
:100A200007F11C031946294804F004FA8023FB61EE
:100A300001233B6200237B620323BB6207F11C039B
:100A40001946224804F0F6F90823FB6101233B62B2
:100A500000237B620023BB6207F11C03194619487F
:100A600004F0E8F94FF48073FB61194B3B620023FB
:100A70007B6207F11C031946124804F0DBF90123DD
:100A8000FB6101233B6200237B620023BB6207F111
:100A90001C0319460A4804F0CDF90223FB610C4BF4
:100AA0003B6200237B6207F11C031946044804F0F3
:100AB000C1F900BF3037BD4680BD00BF0010024005
:100AC000001000480004004800080048000C0048DE
:100AD0000000121080B500AF1E4B1F4A1A601D4B5C
:100AE0001E4A5A601B4B00229A601A4B0122DA60A0
:100AF000184B00221A61174B00225A61154B002235
:100B00009A61144B0022DA61124B00221A621148DA
:100B100006F06BF80346002B03D04D21104800F07F
:100B20006DFC00210B4806F09BFD0346002B03D013
:100B300054210B4800F062FC0021064806F0DBFD62
:100B40000346002B03D05B21054800F057FC00BF93
:100B500080BD00BF5C02002000540040912970005D
:100B6000B0F7000880B500AF1E4B1F4A1A601D4B3E
:100B70001E4A5A601B4B00229A601A4B0122DA600F
:100B8000184B00221A61174B00225A61154B0022A4
:100B90009A61144B0022DA61124B00221A6211484A
:100BA00006F023F80346002B03D06E21104800F016
:100BB00025FC00210B4806F053FD0346002B03D013
:100BC00075210B4800F01AFC0021064806F093FD41
:100BD0000346002B03D07C21054800F00FFC00BF2A
:100BE00080BD00BFA802002000580040912970007D
:100BF000B0F7000880B58AB000AF78607B681B68EA
:100C0000224A93421CD1C0237B611223BB61012382
:100C1000FB6103233B6204237B6207F11403194643
:100C20001B4804F007F91B4A1A4B9B6D43F4001351
:100C30009365184B9B6D03F400133B613B6921E006
:100C40007B681B68144A93421CD14FF440637B615C
:100C50001223BB610123FB6103233B6204237B62FC
:100C600007F1140319460A4804F0E4F8094A094B4D
:100C70009B6D43F480039365064B9B6D03F48003E7
:100C8000FB60FB6800BF2837BD4680BD00540040B4
:100C900000040048001002400058004080B582B0B7
:100CA00000AF78607B681B68104A93420AD1104AF3
:100CB0000F4B9B6D23F400139365C0210D4804F086
:100CC00065FA0FE07B681B680B4A93420AD1084A19
:100CD000074B9B6D23F4800393654FF440610548F7
:100CE00004F054FA00BF0837BD4680BD00540040F0
:100CF00000100240000400480058004080B500AFDA
:100D0000194B1A4A1A60184B00225A60164B0022DF
:100D10009A60154B0C22DA60134B00221A61124BB9
:100D200000225A61104B00229A610F4B0022DA61B7
:100D30000D4B00221A620C4B00221A630A4B002250
:100D40009A62094B0022DA62074B00225A62064877
:100D500006F020FD0346002B03D05021044800F08C
:100D60004DFB00BF80BD00BFF40200200024004006
:100D7000C4F7000880B588B000AF78607B681B6856
:100D80002B4A934250D12B4A2A4B9B6D43F400735C
:100D90009365284B9B6D03F40073BB60BB684FF4F5
:100DA000FC73FB6002233B6100237B610023BB617A
:100DB0000B23FB6107F10C0319461F4804F03AF8B6
:100DC00048F2C073FB6002233B6100237B61002378
:100DD000BB610B23FB6107F10C0319464FF09040F8
:100DE00004F028F84FF23323FB6002233B61002319
:100DF0007B610023BB610B23FB6107F10C031946E8
:100E00000E4804F017F84FF47F43FB6002233B6168
:100E100000237B610023BB610B23FB6107F10C0303
:100E20001946074804F006F800BF2037BD4680BDCC
:100E30000024004000100240000800480004004860
:100E4000000C004880B400AF00BFBD465DF8047BD5
:100E50007047000080B500AF214B1B885B089BB238
:100E60001A46204B1B681A441F4B1B689A4207D82E
:100E70001B4B1B885B089BB21A461C4B1A6006E092
:100E8000194B1A68174B1B68D31A184A1360184B72
:100E900001221A70134B1968144B1B681A46154827
:100EA00002F0E8FE0F4B1A68104B1B6813440D4A02
:100EB00013600B4B1B885B089BB21A460B4B1B68DD
:100EC0009A420AD0022001F077FE0B4B00221A70E2
:100ED0000A4B1B682C33034A136000BF80BD00BF60
:100EE00000000020E8000020EC000020F0000020BE
:100EF000F500002030030020F6000020E400002070
:100F000080B500AF244B1B885B089BB21A46234B6D
:100F10001B681A44224B1B689A4207D81E4B1B8839
:100F20005B089BB21A461F4B1A6006E01C4B1A68FE
:100F30001A4B1B68D31A1B4A13601B4B01221A70F1
:100F4000154B1B889B089BB25B00184A9818134BE3
:100F50001968144B1B681A4602F08CFE0F4B1A6876
:100F6000104B1B6813440D4A13600B4B1B885B0826
:100F70009BB21A460B4B1B689A420AD0022001F022
:100F80001BFE0B4B00221A700A4B1B682C33034AC2
:100F9000136000BF80BD00BF00000020E8000020FB
:100FA000EC000020F0000020F400002030030020BE
:100FB000F6000020E400002080B58EB000AF03F002
:100FC0005DF800F055F9FFF751FCFFF7F9FBFFF76B
:100FD00081FDFFF7C7FDFFF791FE00F015FA00F065
:100FE00059FB00F051FC00F0BBFCFFF7F3FAFFF7F0
:100FF00051FB00F08DFA02F0EFFD01F0BBFF02F0B3
:1010000021F83B1D2C220021184602F033FE7B8B79
:10101000012B02D108237B8301E004237B83814BD6
:101020002C221A607F4B1B687F4A1360BB68083311
:101030007E4A13607B4B19687D4B1B881A467D489E
:1010400002F018FE7A4B1B881A46774B1B68134434
:10105000754A1360FB695B001A463221022001F0D9
:10106000FDFC7B8B43F001039BB2184601F0E2FDCF
:10107000714A7249724801F03DFE724801F0B4FFB6
:1010800000F084FC01214FF0904004F077F9034612
:10109000002B39D000BF01214FF0904004F06EF9D1
:1010A0000346002BF7D1684B1B78002B15D1604B02
:1010B0001B8819465F4801F01BFD0346002B06D133
:1010C000614B01221A70614801F08EFF1CE0C822BA
:1010D00001215F4801F0C0FF16E05E4B1B78002B3A
:1010E0000AD101F031FD01F0ADFF5B4801F07CFF5A
:1010F000584B01221A7007E001F042FD554B0022C7
:101100001A70524801F070FF02214FF0904004F035
:1011100035F90346002B2AD000BF02214FF0904042
:1011200004F02CF90346002BF7D104214B4804F0BE
:1011300055F94B4B1B78002B05D0494B1B78013BD5
:10114000DAB2474B1A70464B1B78184601F05AFD2D
:10115000434B1B781A4607F13003424918460DF0FD
:1011600097FF07F13003184601F03EFF32E00421FB
:101170004FF0904004F002F90346002B2AD000BF44
:1011800004214FF0904004F0F9F80346002BF7D10A
:101190004FF48071344804F021F9314B1B78632BF4
:1011A00005D82F4B1B780133DAB22D4B1A702C4B1C
:1011B0001B78184601F026FD294B1B781A4607F1CB
:1011C0003003284918460DF063FF07F13003184635
:1011D00001F00AFF20214FF0904004F0CFF80346C1
:1011E000002B3FF44DAF00BF04214FF0904004F0BE
:1011F000C5F80346002BF7D1134B1B78002B3FF4A7
:101200003FAF022001F0D8FC0F4B00221A70054BB3
:101210001B682C33044A136001F014FF134801F0DB
:10122000E3FE2DE7E4000020E8000020EC000020B1
:101230000000002030030020010F0008550E0008B8
:10124000450E0008D8F70008F6000020E0F7000877
:10125000E8F70008F7000020F4F700080004004851
:1012600002000020FCF700080010004804F8000805
:1012700080B5B8B000AF5D4A5C4BD3F8903023F036
:101280001803C2F890301C23C7F89C300123C7F81C
:10129000A4300123C7F8B0300123C7F8B4300023CD
:1012A000C7F8B8306023C7F8BC300223C7F8C43091
:1012B0000123C7F8C8300123C7F8CC302823C7F86A
:1012C000D0301123C7F8D4300223C7F8D830022316
:1012D000C7F8DC3007F19C03184607F023FC0346EF
:1012E000002B04D04FF4B471414800F087F80F236D
:1012F000C7F888300323C7F88C300023C7F8903034
:101300000023C7F894300023C7F8983007F188030A
:101310000421184607F068FF0346002B04D04FF461
:10132000BB71334800F06AF8324B3B600023FB632B
:1013300000233B6500237B654FF480037B6600231D
:10134000C7F880304FF40073C7F884304FF08063E3
:10135000FB6601233B6201237B622223BB621123D4
:10136000FB6202233B634FF480337B6301237B608A
:101370000123BB601823FB6007233B6102237B61D1
:101380000223BB614FF48013FB613B46184608F013
:1013900089F90346002B04D040F29311144800F061
:1013A0002DF84FF4007006F0D7FB0346002B04D055
:1013B0004FF4CD710E4800F021F808F0DDF8024638
:1013C0000D4BA3FB02239B09184602F0E0FF04200B
:1013D00002F0EAFF09F02CFA002200214FF0FF3062
:1013E00002F09DFF00BFE037BD4680BD0010024007
:1013F0000CF80008C2280300D34D621080B483B0FB
:1014000000AF78603960FEE780B500AF104B114A3D
:101410001A600F4BFF225A600D4B01229A600C4B51
:101420000022DA600A4B01221A61094B00225A613C
:10143000074B00229A61064806F014FC0346002B75
:1014400003D04A210448FFF7D9FF00BF80BD00BF89
:1014500030130020001000A020F8000880B588B0EC
:1014600000AF78607B681B68154A934224D1154A07
:10147000144B1B6D43F480731365124B1B6D03F407
:101480008073BB60BB684FF47C43FB6002233B610D
:1014900000237B610323BB610A23FB6107F10C037B
:1014A0001946094803F0C6FC00220021472002F03B
:1014B00036FF472002F04FFF00BF2037BD4680BDFA
:1014C000001000A0001002400010004880B582B05B
:1014D00000AF78607B681B680A4A93420DD10A4AC4
:1014E000094B1B6D23F4807313654FF47C4107484F
:1014F00003F04CFE472002F03CFF00BF0837BD461A
:1015000080BD00BF001000A0001002400010004885
:1015100080B500AF154B164A1A60144B02225A6070
:10152000124B00229A60114B4FF400521A610F4B7C
:1015300002229A610D4B0122DA600C4B00225A62A2
:101540000A4B00229A62094B0022DA62022300222F
:101550000421064809F04AFB0346002B03D04D2125
:101560000448FFF74BFF00BF80BD00BFBC13002045
:101570000454014038F8000880B588B000AF7860A6
:101580007B681B683C4A934271D13C4B1B68002B23
:1015900013D13B4A3A4B1B6E43F400131366384B8E
:1015A0001B6E03F40013BB60BB68002200214A20BD
:1015B00002F0B5FE4A2002F0CEFE304B1B6801332C
:1015C0002E4A1360F423FB6002233B6100237B61FE
:1015D0000323BB610D23FB6107F10C031946294866
:1015E00003F028FC4FF40073FB6002233B610023EF
:1015F0007B610023BB610D23FB6107F10C031946DE
:10160000204803F017FC204B204A1A601E4B012291
:101610005A601D4B10229A601B4B0022DA601A4B55
:1016200080221A61184B4FF480725A61164B4FF4A6
:1016300080629A61144B2022DA61134B4FF44052BE
:101640001A62114803F016F90346002B03D08921D2
:101650000F48FFF7D3FE7B680B4A1A670A4A7B687C
:1016600093627B68084ADA66074A7B68936200BF28
:101670002037BD4680BD00BF04540140F800002063
:1016800000100240001000487413002008040240BB
:1016900038F8000880B500AF1C4B1D4A1A601B4B80
:1016A0004FF482725A60194B00229A60174B4FF424
:1016B000E062DA60154B00221A61144B00225A6175
:1016C000124B4FF400729A61104B0022DA610F4BFB
:1016D00000221A620D4B00225A620C4B00229A62C1
:1016E0000A4B0722DA62094B00221A63074B0822D1
:1016F0005A6306480AF051F90346002B03D05121E2
:101700000448FFF77BFE00BF80BD00BF40140020EF
:10171000003800404CF8000880B588B000AF786011
:101720007B681B68114A93421BD1114A104B9B6D79
:1017300043F4804393650E4B9B6D03F48043BB6081
:10174000BB681A23FB6002233B6100237B610323F8
:10175000BB610523FB6107F10C031946054803F043
:1017600069FB00BF2037BD4680BD00BF0038004088
:1017700000100240000C004880B582B000AF244A3F
:10178000234B1B6E43F001031366214B1B6E03F0CA
:1017900001037B607B681E4A1D4B9B6D43F08053A9
:1017A00093651B4B9B6D03F080533B603B680320AC
:1017B00002F0AAFD002200216FF00B0002F0AFFD45
:1017C000002200216FF00A0002F0A9FD0022002192
:1017D0006FF0090002F0A3FD002200216FF0040069
:1017E00002F09DFD002200216FF0030002F097FD42
:1017F000002200216FF0010002F091FD0022002183
:101800004FF0FF3002F08BFD00BF0837BD4680BDB2
:101810000010024080B500AF02F05AFC02F0E0FD7B
:1018200000BF80BD80B500AF02480AF08FF900BF4D
:1018300080BD00BFA414002080B500AF024803F0B3
:1018400028FA00BF80BD00BF7413002080B500AF30
:10185000024804F067F800BF80BD00BFE418002014
:1018600080B500AF024806F0B1FA00BF80BD00BFEE
:101870003013002080B500AF024809F00DFD00BF15
:1018800080BD00BFBC13002080B500AF154B164AC9
:101890001A60144B4FF4E1325A60124B00229A60E6
:1018A000104B0022DA600F4B00221A610D4B0C2204
:1018B0005A610C4B00229A610A4B0022DA61094BF3
:1018C00000221A62074B00225A6206480AF0EDF81D
:1018D0000346002B03D04E210448FFF78FFD00BFC5
:1018E00080BD00BFA41400200044004060F8000840
:1018F00080B588B000AF78607B681B68154A93425A
:1019000023D1154A144B9B6D43F400339365124B5E
:101910009B6D03F40033BB60BB686023FB60022354
:101920003B6101237B610323BB610723FB6107F15B
:101930000C031946094803F07DFA002200212620F5
:1019400002F0EDFC262002F006FD00BF2037BD4668
:1019500080BD00BF0044004000100240000C004861
:1019600080B500AF0122064906480CF0D5F80649BB
:1019700004480CF045F903480CF0D3F900BF80BDD2
:10198000A11900081C1500204000002080B500AF00
:1019900002480CF0D7F900BF80BD00BF1C15002025
:1019A00080B483B000AF78600B46FB70FB78013BDE
:1019B000042B19D801A252F823F000BFE91900083E
:1019C000D9190008E9190008E1190008D11900081F
:1019D000094B03221A7008E0074B02221A7004E038
:1019E000054B01221A7000E000BF00BF0C37BD4656
:1019F0005DF8047B704700BFFC00002080B58AB012
:101A000000AF78607B681B68B3F1A04F42D14FF400
:101A1000C0537B610223BB610023FB6103233B6254
:101A20000A237B6207F1140319464FF0904003F03C
:101A300001FA1A4A194BDB6C43F48053D364174BF9
:101A4000DB6C03F480533B613B69144B9B6D03F0EB
:101A50008053002B14D1114A104B9B6D43F08053DF
:101A600093650E4B9B6D03F08053FB60FB6806F0A3
:101A7000C9F80A4A094B9B6D23F08053936501E036
:101A800006F0C0F800220021432002F048FC432069
:101A900002F061FC00BF2837BD4680BD0010024047
:101AA00080B582B000AF78607B68D3F89432184676
:101AB0000CF0BDFB00BF0837BD4680BD80B582B0CD
:101AC00000AF78607B68D3F8943218460CF0D9FBED
:101AD00000BF0837BD4680BD80B582B000AF7860DA
:101AE0007B68D3F8943218460CF0F1FB00BF08373E
:101AF000BD4680BD80B483B000AF78600B46FB70FC
:101B00001346BB7000BF0C37BD465DF8047B7047C1
:101B100080B582B000AF78607B6893F8BC33012B4E
:101B20002CD1194A7B68C2F894327B68164AC3F8F4
:101B3000C023154B4FF0A0421A60134B08229A6045
:101B4000114B0322DA60104B00221A610E4B012266
:101B50009A610D4B0022DA610B4803F051FC0346F9
:101B6000002B03D0F2210948FFF748FC064804F097
:101B700053F80346194678680CF04AFB00231846D0
:101B80000837BD4680BD00BFE418002078F8000883
:101B900080B584B000AF78600023BB730023FB7373
:101BA0007B68D3F8C033184603F0BEFF0346BB730F
:101BB000BB7B032B16D801A252F823F0CD1B0008E3
:101BC000D31B0008D91B0008DF1B00080023FB7390
:101BD0000BE00223FB7308E00123FB7305E0022303
:101BE000FB7302E00223FB7300BFFB7B1846103738
:101BF000BD4680BD80B584B000AF78600023BB7364
:101C00000023FB737B68D3F8C033184603F0AFFFA3
:101C10000346BB73BB7B032B16D801A252F823F0FB
:101C2000311C0008371C00083D1C0008431C00083C
:101C30000023FB730BE00223FB7308E00123FB731B
:101C400005E00223FB7302E00223FB7300BFFB7B72
:101C500018461037BD4680BD80B584B000AF7860AF
:101C60000123FB737B68D3F8C033184603F0E2FF0F
:101C70000346012B07D0012B02D3022B06D008E02C
:101C80000023FB7308E00123FB7305E00223FB73D1
:101C900002E00123FB7300BFFB7B18461037BD46F3
:101CA00080BD000080B584B000AF78600023BB73B6
:101CB0000023FB737B68D3F8C033184603F074FF2E
:101CC0000346BB73BB7B032B16D801A252F823F04B
:101CD000E11C0008E71C0008ED1C0008F31C0008CC
:101CE0000023FB730BE00223FB7308E00123FB736B
:101CF00005E00223FB7302E00223FB7300BFFB7BC2
:101D000018461037BD4680BD80B582B000AF786000
:101D10000B46FB707B68D3F8C033FA78114618463F
:101D200003F065FF034618460837BD4680BD000036
:101D300090B589B004AF7860084611461A4603464C
:101D4000FB700B46BB7013467B700023BB730023F4
:101D5000FB737B68D3F8C0037C78BA78F9783B8D45
:101D6000029397F82430019397F82030009323468C
:101D700003F09CFB0346BB73BB7B032B16D801A26D
:101D800052F823F0951D00089B1D0008A11D0008B6
:101D9000A71D00080023FB730BE00223FB7308E080
:101DA0000123FB7305E00223FB7302E00223FB73B4
:101DB00000BFFB7B18461437BD4690BD80B584B08C
:101DC00000AF78600B46FB700023BB730023FB73EE
:101DD0007B68D3F8C033FA781146184603F0EDFB60
:101DE0000346BB73BB7B032B16D801A252F823F02A
:101DF000011E0008071E00080D1E0008131E000823
:101E00000023FB730BE00223FB7308E00123FB7349
:101E100005E00223FB7302E00223FB7300BFFB7BA0
:101E200018461037BD4680BD90B589B004AF7860C4
:101E3000084611461A460346FB700B46BB70134614
:101E40007B700023BB730023FB737B68D3F8C00354
:101E50007C78BA78F97897F82C3003933B8D02930D
:101E60007B6A019397F820300093234603F0C8FB68
:101E70000346BB73BB7B032B16D801A252F823F099
:101E8000911E0008971E00089D1E0008A31E000852
:101E90000023FB730BE00223FB7308E00123FB73B9
:101EA00005E00223FB7302E00223FB7300BFFB7B10
:101EB00018461437BD4690BD80B582B000AF78603B
:101EC0000B46FB707B68D3F8C033FA78114618468E
:101ED00003F078FE034618460837BD4680BD80B53E
:101EE00082B000AF78600B46FB707B6893F8BC3320
:101EF000012B03D1FB78184600F046F8C82002F009
:101F000001F9002318460837BD4680BD80B485B06E
:101F100000AF78600B46FB701346BB707B68D3F84C
:101F2000C033FB60FA78F96813469B001344DB006A
:101F30000B443B331B78002B0AD0FA78F968134620
:101F40009B001344DB000B445033BA781A7009E04D
:101F5000FA78F96813469B001344DB000B445133B5
:101F6000BA781A70002318461437BD465DF8047B12
:101F7000704780B582B000AF7860786802F0C2F830
:101F800000BF0837BD4680BD80B584B000AF0346B2
:101F9000FB71FB79FB73FB79002B02D10123FB73EF
:101FA00001E00023FB73FB7B1A464FF400710348EA
:101FB00003F0FCF900BF1037BD4680BD00080048A3
:101FC00080B586B000AF7B600346FB810B46BB81CA
:101FD0001346FB7200237B6100F096FCFB89DBB2A9
:101FE00001220221184600F001FB03461A467B69D4
:101FF00013447B61BB89013B032B1BD801A252F820
:1020000023F000BF152000081D200008252000082F
:102010002D2000085B4BFA221A700FE0594BAF22BB
:102020001A700BE0574BAA221A7007E0554B052295
:102030001A7003E0534B05221A7000BFFB89D8B217
:10204000504B1B78DBB21A46042100F0CFFA03464E
:102050001A467B6913447B61FB89DBB2812205212F
:10206000184600F0C3FA03461A467B6913447B61A5
:10207000FB89DBB204220621184600F0B7FA0346BA
:102080001A467B6913447B61FA7AFB89114618462C
:1020900000F064F902467B6913447B61BB89022B23
:1020A00023D0FB89DBB206220F21184600F09EFAEE
:1020B00003461A467B6913447B61FB89DBB200222D
:1020C0002421184600F092FA03461A467B6913440D
:1020D0007B61FB89DBB200222521184600F086FADD
:1020E00003461A467B6913447B61FB89DBB20022FD
:1020F0000A21184600F07AFA03461A467B6913440F
:102100007B61FB89DBB204220E21184600F06EFAD7
:1021100003461A467B6913447B61FB89DBB20022CC
:102120002721184600F062FA03461A467B691344D9
:102130007B61FB89DBB20F221F21184600F056FAA3
:1021400003461A467B6913447B61FB89DBB20A2292
:102150001A21184600F04AFA03461A467B691344CE
:102160007B61FB89DBB20A221B21184600F03EFA94
:1021700003461A467B6913447B617B69184618370E
:10218000BD4680BDFD00002080B500AF00F0F2FB31
:1021900000BF80BD80B584B000AF0346FB8000F077
:1021A000B3FBFB88DBB20121184600F03BFC034681
:1021B000FB73FB7B23F00703FB73FB7B1846103795
:1021C000BD4680BD80B584B000AF03463960FB805A
:1021D0001346BB800023FB60164B1B78012B23D1D9
:1021E000FB88DBB206220E21184600F0FFF90346F9
:1021F0001A46FB681344FB60FB880021184600F078
:1022000019F90246FB681344FB60FB88DBB29E228F
:102210000221184600F0EAF903461A46FB68134407
:10222000FB60044B00221A70FB6818461037BD464D
:1022300080BD00BF3400002080B584B000AF0346ED
:10224000FB800023FB60FB880121184600F0F2F8B8
:102250000246FB681344FB60FB88DBB201220221CB
:10226000184600F0C3F903461A46FB681344FB60A6
:10227000FB6818461037BD4680BD000080B584B0AD
:1022800000AF0346FB800023FB600023BB60FB889C
:102290000021184600F0CEF80246FB681344FB60AC
:1022A0000023BB6002E0BB680133BB60BB68FE2B50
:1022B000F9D9FB88D8B20E4B1B78DBB21A46042141
:1022C00000F094F903461A46FB681344FB60FB8850
:1022D000DBB29E220221184600F088F903461A4616
:1022E000FB681344FB60FB6818461037BD4680BD91
:1022F000FD00002080B584B000AF03463960FB804C
:102300000023FB60FB880121184600F093F8024689
:10231000FB681344FB60FB88DBB204220E211846E5
:1023200000F064F903461A46FB681344FB60FB881F
:10233000DBB29F220221184600F058F903461A46E4
:10234000FB681344FB60044B01221A70FB681846BB
:102350001037BD4680BD00BF3400002080B584B07A
:1023600000AF03460A46FB8013467B710023FB60E7
:102370007B79642B0BD87A7913461B029B1A254A6A
:1023800082FB03125211DB17D31ADBB200E0642385
:10239000FB727B79E62B1CD9FB88D8B2FB7A193308
:1023A000DBB21A46202100F021F903461A46FB68E9
:1023B0001344FB60FB88D8B2FB7A1933DBB21A46B0
:1023C000212100F013F903461A46FB681344FB6011
:1023D0001BE0FB88D8B2FB7A1933DBB21A46202106
:1023E00000F004F903461A46FB681344FB60FB88BF
:1023F000D8B2FB7A1933DBB21A46212100F0F6F885
:1024000003461A46FB681344FB60FB681846103706
:10241000BD4680BD1F85EB5180B483B000AF03463D
:102420003960FB80002318460C37BD465DF8047BFD
:102430007047000080B584B000AF03463960FB8070
:102440000023FB603B68012B24D1FB88DBB2FF2219
:102450000421184600F0CAF803461A46FB681344E4
:10246000FB60FB88DBB201222221184600F0BEF897
:1024700003461A46FB681344FB60FB88DBB201226B
:102480002321184600F0B2F803461A46FB681344AD
:10249000FB6025E0FB88DBB200222221184600F019
:1024A000A5F803461A46FB681344FB60FB88DBB2C1
:1024B00000222321184600F099F803461A46FB68CB
:1024C0001344FB60FB88D8B2084B1B78DBB21A467A
:1024D000042100F08BF803461A46FB681344FB60A6
:1024E000FB6818461037BD4680BD00BFFD000020C8
:1024F00080B584B000AF03460A46FB8013467B716B
:102500000023FB607B79013B032B4BD801A252F8DF
:1025100023F000BF25250008452500086525000893
:1025200085250008FB88DBB2FA220421184600F05A
:102530005DF803461A46FB681344FB60244BFA22FD
:102540001A703FE0FB88DBB2AF220421184600F08E
:102550004DF803461A46FB681344FB601C4BAF2240
:102560001A702FE0FB88DBB2AA220421184600F083
:102570003DF803461A46FB681344FB60144BAA223D
:102580001A701FE0FB88DBB205220421184600F018
:102590002DF803461A46FB681344FB600C4B0522DA
:1025A0001A700FE0FB88DBB205220421184600F008
:1025B0001DF803461A46FB681344FB60044B0522D2
:1025C0001A7000BFFB6818461037BD4680BD00BFBB
:1025D000FD00002080B483B000AF0346FB800023E1
:1025E00018460C37BD465DF8047B704780B584B053
:1025F00000AF0346FB710B46BB7113467B71002392
:10260000FB607A79B979FB79184600F0F3F9FB6839
:10261000DBB218461037BD4680BD000080B500AF64
:10262000124804F0EBFD0346002B1DD10F4B104A5E
:102630001A600E4B0F4A5A600C4B00229A600B4BEB
:102640000122DA60094B00221A61084B00225A610C
:10265000064B0022DA61054B00221A62034800F0A3
:102660000BF8024804F0C1FA00BF80BD0001002051
:10267000005400402626119080B5AEB000AF7860BF
:102680003A4A3A4B9B6D43F080539365374B9B6DB1
:1026900003F08053BB61BB6905F0C4FA7B681B681B
:1026A000334A93425ED14023FB614FF48053FB6673
:1026B00007F11C03184606F0F5FF2C4A2B4BDB6C88
:1026C00043F00203D364294BDB6C03F002037B610C
:1026D0007B69264A254BDB6C43F00203D364234B12
:1026E000DB6C03F002033B613B69C023C7F8A430F5
:1026F0001223C7F8A8300123C7F8AC300323C7F86A
:10270000B0300423C7F8B43007F1A40319461948C0
:1027100002F090FB154A154B9B6D43F40013936533
:10272000124B9B6D03F40013FB60FB680F4A0F4BC9
:102730009B6B43F4001393630C4A0C4B9B6B23F489
:1027400000139363002200211F2001F0E8FD1F20E9
:1027500001F001FE00220021202001F0E0FD2020F8
:1027600001F0F9FD00BFB837BD4680BD0010024042
:10277000005400400004004880B500AF064804F053
:102780003DFD0346002B05D0034804F0BCFA024887
:1027900000F004F800BF80BD0001002080B586B0C5
:1027A00000AF78607B681B68244A934241D1244A79
:1027B000234BDB6C43F00203D364214BDB6C03F04F
:1027C00002037B617B691E4A1D4BDB6C43F00203F5
:1027D000D3641B4BDB6C03F002033B613B69C021FC
:1027E000184802F0D3FC164A154B9B6B43F40013B8
:1027F0009363134A124B9B6B23F400139363104AA9
:102800000F4B9B6D23F4001393651F2001F0B1FD66
:10281000202001F0AEFD0A4A094B9B6D43F0805326
:102820009365074B9B6D03F08053FB60FB6805F0DD
:1028300009FA00BF1837BD4680BD00BF00540040F4
:10284000001002400004004880B58AB004AF7B60ED
:102850000346FB810B46BB8113467B810023FB753E
:102860000C4B1B687889BA89F98902933B8C0193D8
:102870007B6800930346084804F074FA0346FB752E
:10288000FB7D002B01D000F033F8FB7D1846183794
:10289000BD4680BD380000200001002080B58AB010
:1028A00004AF7B600346FB810B46BB8113467B81F3
:1028B0000023FB750C4B1B687889BA89F989029350
:1028C0003B8C01937B6800930346084804F070FB3F
:1028D0000346FB75FB7D002B01D000F009F8FB7D62
:1028E00018461837BD4680BD380000200001002082
:1028F00080B500AF034804F006FAFFF78FFE00BF73
:1029000080BD00BF0001002080B586B000AF174A2F
:10291000164BDB6C43F01003D364144BDB6C03F0F9
:1029200010033B603B6808237B600123BB600223EC
:102930003B610023FB603B1D19460D4802F07AFA0B
:10294000FFF76CFE00220821094802F02FFD052048
:1029500001F0D8FB01220821054802F027FD0520DF
:1029600001F0D0FB00BF1837BD4680BD001002400B
:102970000010004880B586B000AF1C4A1B4BDB6CD2
:1029800043F01003D364194BDB6C03F010033B607E
:102990003B680123BB607C237B600223FB60032335
:1029A0003B613B1D1946124802F044FA0022042103
:1029B0000F4802F0FBFC002208210D4802F0F6FC53
:1029C000002210210A4802F0F1FC002220210848D0
:1029D00002F0ECFC00224021054802F0E7FCFFF782
:1029E000CBFE00BF1837BD4680BD00BF00100240BF
:1029F0000010004880B584B002AF0346FB710B465F
:102A0000BB7113467B71FB7998B2BB7999B27A1D81
:102A10000123009313460122FFF716FF00BF08377A
:102A2000BD4680BD80B586B002AF03460A46FB7145
:102A30001346BB710023FB73FB7998B2BB7999B243
:102A400007F10F020123009313460122FFF726FF2F
:102A5000FB7B18461037BD4680BD000090B583B0A3
:102A600000AF03463A60FB800B467B711E4B1F4A4A
:102A70001A601D4B00225A601B4B00229A601A4BB1
:102A80000022DA60386800F035FA0346002B01D0E6
:102A9000012324E0386800F07BF90346002B01D0C5
:102AA00001231CE0114B9B68942098470346E02BC0
:102AB00001D0012313E000F00DFA0B4B1B681C68DA
:102AC0007A79F9883B689420A0470346002B01D00F
:102AD000012304E07B79184600F094F8002318469F
:102AE0000C37BD4690BD00BF4C0100200400002003
:102AF00080B582B000AF786039603B684FF6FF72F6
:102B0000934228BF13469BB21A4679680C4808F0D6
:102B100013FB0346002B01D001230DE0094B1B687A
:102B2000DB683A6892B27968942098470346002B94
:102B300001D0012300E0002318460837BD4680BDC0
:102B4000D01B00204C01002080B500AF0A4B1B6851
:102B50001B69942098470346002B01D0012308E00D
:102B6000064808F0EFF90346002B01D0012300E0EE
:102B70000023184680BD00BF4C010020D01B002060
:102B800080B500AF0A4B1B685B69942098470346E9
:102B9000002B01D0012308E0064808F0F5F90346B0
:102BA000002B01D0012300E00023184680BD00BFA8
:102BB0004C010020D01B002080B582B000AF7860AF
:102BC0000E4B1B689B697968942098470346002B3D
:102BD00001D001230EE07B68012B02D1012001F01E
:102BE00091FA074808F001FA0346002B01D00123AF
:102BF00000E0002318460837BD4680BD4C01002088
:102C0000D01B002080B582B000AF0346FB71084B9B
:102C10001B681B6AFA791146942098470346002BDB
:102C200001D0012300E0002318460837BD4680BDCF
:102C30004C01002080B582B000AF78607B6803F063
:102C40000103002B0ED02A4BDB6E184601F0D0FE9C
:102C5000274BDB6E2022DA61254BDB6E184601F034
:102C600009FE0DE0224BDB6E184601F0C1FE204B41
:102C7000DB6E0022DA611E4BDB6E184601F0FAFDB6
:102C80007B6803F00403002B16D0194B1B68184A0D
:102C90001268126822F480321A60154B00225A62C0
:102CA000134807F0DFFF124B1B68114A12681268C5
:102CB00042F480321A6016E00D4B1B680C4A126811
:102CC000126822F480321A60094B4FF480525A6223
:102CD000074807F0C7FF064B1B68054A12681268D1
:102CE00042F480321A6000BF0837BD4680BD00BF85
:102CF000D01B002080B485B000AFF860B9607A6066
:102D0000074AFB685360064ABB689360044A7B68C5
:102D1000D36000BF1437BD465DF8047B704700BF29
:102D20004C01002080B582B000AF7860054BDB68B5
:102D3000002B02D0034BDB68984700BF0837BD4625
:102D400080BD00BF4C01002080B582B000AF78602C
:102D5000054B9B68002B02D0034B9B68984700BF34
:102D60000837BD4680BD00BF4C01002080B582B051
:102D700000AF7860054B5B68002B02D0034B5B68AB
:102D8000984700BF0837BD4680BD00BF4C010020FA
:102D900080B582B000AF78604C4B1B684B4A12681C
:102DA000126822F480321A60484B494A1A60474B35
:102DB00000225A60454B00229A60444B0022DA60A0
:102DC000424B4FF400521A61404B00225A613F4B74
:102DD00001229A613D4B0022DA617B68B3F5FA5F0C
:102DE00029D07B6842F61132934222D07B68B3F53A
:102DF0007A5F1CD07B6845F22262934215D07B68D3
:102E0000B3F5FA4F0FD07B684AF64442934208D09C
:102E10007B684BF68032934201D102230CE0012300
:102E20000AE0002308E0032306E0012304E0062370
:102E300002E0022300E00C23244A1362234B002209
:102E40005A62224B00229A62204B0022DA621F4B08
:102E500000221A631D4B80225A631C4B00229A6386
:102E60001A4B0022DA63194B20221A64174B1022E6
:102E70005A64164B4FF480329A64144B0022DA6481
:102E8000124B4FF480221A65104B00225A650F4BEB
:102E900000229A650D4B0222DA650C4B03221A665A
:102EA0000A4807F0DFFE0346002B01D0012308E0AB
:102EB000064B1B68054A1268126842F480321A6099
:102EC000002318460837BD4680BD00BFD01B002038
:102ED0000454014080B500AF044B054A1A60034B0F
:102EE0001B68DB6A9420984700BF80BD4C0100201E
:102EF0000400002080B5A4B000AF786007F108039B
:102F0000184606F0B3FE7B6842F61132934209D0B0
:102F10007B6845F22262934204D07B684AF64442C1
:102F200093420CD14FF40063BB6018237B611123E3
:102F3000BB614FF480337B620023FB660BE04FF4F0
:102F40000063BB602B237B610723BB614FF480339D
:102F50007B620023FB6607F10803184606F0A2FB1C
:102F60000346002B01D0012300E0002318469037D0
:102F7000BD4680BD80B500AF194B1A4A1A60184B88
:102F800000225A60164B4FF470129A60144B0C22B8
:102F9000DA60134B40221A61114B00225A61104B28
:102FA0004FF4A0529A610E4B0022DA610C4B402282
:102FB0001A620B4B00225A62094B00229A62084B9C
:102FC0004FF48042DA62064B00221A63044800F094
:102FD000F5F8034804F0DEFB00F034F800BF80BDD4
:102FE000641C00200024004080B584B000AF7860ED
:102FF0000023FB730BE0FB7B00220021786800F0CC
:103000006BFA7B6801337B60FB7B0133FB737B686E
:103010001B78002B14BF01230023DAB2FB7B052BA6
:1030200094BF01230023DBB21340DBB2002BE2D1BB
:10303000034804F024FD00BF1037BD4680BD00BF2B
:10304000641C002080B500AF024804F0BEFC00BF45
:1030500080BD00BF641C002080B586B000AF7860E2
:103060000B467B8013463B800023FB750023BB751A
:1030700000237B750023BB600023BB814E4B0022E5
:103080001A707B68002B00F092807B683B61002304
:103090007B7505E07B7D01337B753B6901333B61CB
:1030A0003B691B78002BF5D17B683B6107F1080376
:1030B0001846FFF799FF3B88184601F023F80023D4
:1030C000FB756EE00023BB7564E0BB7D01337A7D48
:1030D00093FBF2F102FB01F29B1A1A463B6913447F
:1030E0001B783B72BB7D02337A7D93FBF2F102FBCE
:1030F00001F29B1A1A463B6913441B787B72BB7D15
:1031000003337A7D93FBF2F102FB01F29B1A1A461C
:103110003B6913441B78BB72BB7D04337A7D93FB00
:10312000F2F102FB01F29B1A1A463B6913441B7829
:10313000FB72BB7D05337A7D93FBF2F102FB01F25A
:103140009B1A1A463B6913441B783B73BB7D0633BD
:103150007A7D93FBF2F102FB01F29B1A1A463B695E
:1031600013441B787B73FFF76DFF07F108031846C4
:10317000FFF73AFF104B1B78DBB2002B03D00E4B4E
:1031800000221A7014E03B88184600F0BBFFBB7D9C
:103190000133BB75BA7D7B7D9A4296D3FB7D0133AB
:1031A000FB75FB7D9BB27A889A428BD800E000BF0A
:1031B0001837BD4680BD00BF5C01002080B5C0B09F
:1031C00000AF786007F1EC0300221A605A609A6041
:1031D000DA601A6107F1A8034422002118460BF0B7
:1031E00092FE07F120038822002118460BF08BFE87
:1031F000514A514B9B6D43F0805393654E4B9B6DF1
:1032000003F08053FB61FB690423C7F8A830002357
:10321000C7F8D0300123C7F8B03007F1A80318462B
:1032200005F080FC0346002B00D0FEE74FF400338E
:103230003B624FF48073C7F8A43007F120031846AF
:1032400006F030FA3C4A3C4BDB6C43F00103D3649C
:10325000394BDB6C03F00103BB61BB69364A364B6B
:10326000DB6C43F00203D364334BDB6C03F00203EB
:103270007B617B69304A304BDB6C43F00403D364E1
:103280002D4BDB6C03F004033B613B692A4A2A4B5C
:10329000DB6C43F00803D364274BDB6C03F00803BB
:1032A000FB60FB6848F2C073C7F8EC300223C7F834
:1032B000F0300023C7F8F4300323C7F8F8300B23AD
:1032C000C7F8FC3007F1EC0319464FF0904001F0CD
:1032D000B1FD4FF23323C7F8EC3007F1EC03194688
:1032E000164801F0A7FD4FF4FC73C7F8EC3007F166
:1032F000EC031946124801F09DFD4FF47F43C7F8D7
:10330000EC3007F1EC0319460E4801F093FD022062
:1033100000F0F8FE084A084B9B6D43F40073936578
:10332000054B9B6D03F40073BB60BB6800BF07F5E2
:103330008077BD4680BD00BF0010024000040048F9
:1033400000080048000C004880B485B000AF7860E9
:103350000B46FB701346BB700023FB8100237B737D
:1033600000233B737B681B782F2B4DD02F2B11DC58
:10337000292B2ED0292B06DC252B4CD0282B25D011
:10338000202B1CD057E02B2B3AD02B2B1ADB2D2BCC
:1033900032D050E06D2B23D06D2B04DC392B42DD75
:1033A000642B19D047E0B02B31D0B02B02DC6E2B50
:1033B0001AD040E0B52B1BD0FF2B30D03BE00023D0
:1033C000FB8157E04AF2DD03FB8153E02823FB81B8
:1033D00050E01123FB814DE04FF47343FB8149E042
:1033E0004BF21023FB8145E042F21023FB8141E0C8
:1033F00046F28403FB813DE04FF42043FB8139E03A
:103400004AF21403FB8135E0C023FB8132E04FF424
:103410006C43FB812EE04FF43343FB812AE04FF6EF
:10342000DD73FB8126E07B681B78303B274A32F84E
:103430001330FB811EE07B681B785A2B0AD87B680F
:103440001B78402B06D97B681B78413B204A32F819
:103450001330FB817B681B787A2B0AD87B681B783A
:10346000602B06D97B681B78613B194A32F8133010
:10347000FB8100BFFB78012B03D1FB8943F00203E2
:10348000FB81BB78012B03D1FB8943F02003FB8137
:103490000C237B7300233B730FE03B7BF9897A7B22
:1034A00041FA02F202F00F020A4941F823207B7B25
:1034B000043B7B733B7B01333B733B7B032BECD99E
:1034C00000BF1437BD465DF8047B7047CCF8000898
:1034D00098F80008541C002080B584B000AF7860D4
:1034E000084611461A460346FB700B46BB7013464E
:1034F0007B700023FB60BA78FB7819467868FFF789
:1035000023FF7B78052B00F25B8301A252F823F0A6
:1035100029350008233600083D3700083F380008E9
:103520006D390008B73A0008804B1B681B0103F097
:1035300010027E4B1B685B08DB0503F400031A4393
:103540007A4B1B689B089B0503F480031A43774B57
:103550001B6803F008031343FB60FB68744A0021F7
:10356000744804F0D3F9714B5B681B0103F010023F
:103570006E4B5B685B08DB0503F400031A436B4B7F
:103580005B689B089B0503F480031A43674B5B68E9
:1035900003F008031343FB60FB68654A022165489A
:1035A00004F0B4F9614B9B681B0103F010025F4B00
:1035B0009B685B08DB0503F400031A435B4B9B68C5
:1035C0009B089B0503F480031A43584B9B6803F048
:1035D00008031343FB60FB68554A0421554804F077
:1035E00095F9524BDB681B0103F010024F4BDB686F
:1035F0005B08DB0503F400031A434C4BDB689B08B4
:103600009B0503F480031A43484BDB6803F008036F
:103610001343FB60FB68464A0621464804F076F9EE
:10362000CFE2424B1B689B0103F040023F4B1B68FB
:103630005B085B0303F400531A433C4B1B689B0875
:103640001B0303F480531A43384B1B68DB085B01F0
:1036500003F020031343FB60FB68374A0021354821
:1036600004F054F9314B5B689B0103F040022F4B8F
:103670005B685B085B0303F400531A432B4B5B68E6
:103680009B081B0303F480531A43284B5B68DB0839
:103690005B0103F020031343FB60FB68264A022111
:1036A000244804F033F9214B9B689B0103F040024E
:1036B0001E4B9B685B085B0303F400531A431B4BD0
:1036C0009B689B081B0303F480531A43174B9B68AA
:1036D000DB085B0103F020031343FB60FB68164A21
:1036E0000421144804F012F9104BDB689B0103F02D
:1036F00040020E4BDB685B085B0303F400531A4384
:103700000A4BDB689B081B0303F480531A43074BE7
:10371000DB68DB085B0103F020031343FB60FB68FD
:10372000054A0621034804F0F1F84AE2541C00203F
:10373000E7FF3FFF641C00209FCFFFFF884B1B6803
:10374000DB039AB2864B1B685B085B0703F00053F0
:103750001A43834B1B689B081B0703F080531A43D3
:103760007F4B1B68DB089B0303F480431343FB6020
:10377000FB687C4A00217C4804F0C8F8784B5B6801
:10378000DB039AB2764B5B685B085B0703F0005380
:103790001A43734B5B689B081B0703F080531A4363
:1037A0006F4B5B68DB089B0303F480431343FB60B0
:1037B000FB686C4A02216C4804F0A8F8684B9B68CF
:1037C000DB039AB2664B9B685B085B0703F0005310
:1037D0001A43634B9B689B081B0703F080531A43F3
:1037E0005F4B9B68DB089B0303F480431343FB6040
:1037F000FB685C4A04215C4804F088F8584BDB689D
:10380000DB039AB2564BDB685B085B0703F000539F
:103810001A43534BDB689B081B0703F080531A4382
:103820004F4BDB68DB089B0303F480431343FB60CF
:10383000FB684C4A06214C4804F068F8C1E1484B4B
:103840001B68DA07464B1B68DB089B0703F08043C5
:103850001343FB60FB686FF040420021424804F0D4
:1038600055F83F4B1B6803F002023D4B1B689B0859
:1038700003F001031343FB60FB686FF003020121B7
:10388000394804F043F8364B5B68DA07344B5B6821
:10389000DB089B0703F080431343FB60FB686FF07A
:1038A00040420221304804F031F82D4B5B6803F0B0
:1038B00002022B4B5B689B0803F001031343FB6080
:1038C000FB686FF003020321274804F01FF8244B24
:1038D0009B68DA07224B9B68DB089B0703F0804359
:1038E0001343FB60FB686FF0404204211E4804F064
:1038F0000DF81B4B9B6803F00202194B9B689B0859
:1039000003F001031343FB60FB686FF00302052122
:10391000154803F0FBFF124BDB68DA07104BDB683E
:10392000DB089B0703F080431343FB60FB686FF0E9
:10393000404206210C4803F0E9FF094BDB6803F025
:103940000202074BDB689B0803F001031343FB6093
:10395000FB686FF003020721034803F0D7FF30E153
:10396000541C0020FF3FFFCF641C0020974B1B68B6
:103970005B085B0603F00072944B1B689B081B06F8
:1039800003F080731343FB60FB686FF0407200210B
:103990008F4803F0BBFF8D4B1B68DB0003F0080270
:1039A0008A4B1B68DB089B0003F004031343FB6096
:1039B000FB686FF00C020121854803F0A7FF834BE1
:1039C0005B685B085B0603F00072804B5B689B08DA
:1039D0001B0603F080731343FB60FB686FF04072BB
:1039E00002217B4803F092FF784B5B68DB0003F019
:1039F0000802764B5B68DB089B0003F0040313436B
:103A0000FB60FB686FF00C020321714803F07EFF3E
:103A10006E4B9B685B085B0603F000726B4B9B6808
:103A20009B081B0603F080731343FB60FB686FF079
:103A300040720421664803F069FF644B9B68DB0019
:103A400003F00802614B9B68DB089B0003F0040352
:103A50001343FB60FB686FF00C0205215C4803F028
:103A600055FF5A4BDB685B085B0603F00072574B4F
:103A7000DB689B081B0603F080731343FB60FB6845
:103A80006FF040720621524803F040FF4F4BDB6855
:103A9000DB0003F008024D4BDB68DB089B0003F002
:103AA00004031343FB60FB686FF00C0207214848D6
:103AB00003F02CFF85E0454B1B685B0403F40032E8
:103AC000424B1B685B081B0203F480731A433F4B95
:103AD0001B689B085B0203F400731A433B4B1B6893
:103AE000DB089B0603F080631343FB60FB68394AE5
:103AF0000021374803F00AFF344B5B685B0403F492
:103B00000032324B5B685B081B0203F480731A437C
:103B10002E4B5B689B085B0203F400731A432B4B2C
:103B20005B68DB089B0603F080631343FB60FB6864
:103B3000284A0221264803F0E9FE244B9B685B04D7
:103B400003F40032214B9B685B081B0203F4807373
:103B50001A431E4B9B689B085B0203F400731A43D5
:103B60001A4B9B68DB089B0603F080631343FB60E2
:103B7000FB68184A0421164803F0C8FE134BDB68A3
:103B80005B0403F40032114BDB685B081B0203F497
:103B900080731A430D4BDB689B085B0203F40073D0
:103BA0001A430A4BDB68DB089B0603F08063134370
:103BB000FB60FB68074A0621054803F0A7FE00E00A
:103BC00000BF00BF1037BD4680BD00BF541C0020A1
:103BD000641C0020FFFCFDFB80B582B000AF234BCE
:103BE000234A1A60214804F0C1F80346002B01D093
:103BF000012337E000F080F81C4B01225A601B4B78
:103C000004229A60194B0022DA604FF080737B60C7
:103C10007B6893FAA3F33B603B68B3FA83F3013B01
:103C20001A46124B1A61114B00225A610F4B0022A7
:103C30009A610E4804F016F80346002B01D00123C8
:103C400010E00A4800F0A4F80346002B01D004233A
:103C500008E0064800F0E0F80346002B01D00423FA
:103C600000E0002318460837BD4680BDA01C002098
:103C7000001000A080B592B000AFF860B9607A6023
:103C80004FF48073BB62EB233B614FF44063FB62F4
:103C90004FF40053FB61BB687B6100233B634FF033
:103CA00040737B630A237B627B68BB630023FB63F7
:103CB00000233B6400237B6407F1100341F2883248
:103CC00019460C4804F022FA0346002B01D00123C8
:103CD0000BE041F28832F968064804F00CFB034619
:103CE000002B01D0012300E0002318464837BD46D1
:103CF00080BD00BFA01C002080B588B000AF224A64
:103D0000214B1B6D43F4807313651F4B1B6D03F434
:103D10008073BB60BB681C4A1B4B1B6B43F48073F6
:103D20001363194A184B1B6B23F480731363164AF1
:103D3000154BDB6C43F01003D364134BDB6C03F0C7
:103D400010037B607B684FF40063FB6002233B61E0
:103D500001237B610323BB610A23FB6107F10C0391
:103D600019460A4801F066F84FF47443FB600023DB
:103D70007B6107F10C031946044801F05BF800BFB2
:103D80002037BD4680BD00BF001002400010004833
:103D900080B590B000AF78604FF480733B626623CB
:103DA000BB6000237B620023BB620023FB62002315
:103DB000FB6100237B630023BB630023FB6307F1EC
:103DC000080341F288321946124804F09FF903466D
:103DD000002B01D0012319E09923BB6007F10803F0
:103DE00041F2883219460B4804F090F90346002B43
:103DF00001D001230AE041F28831064800F0CEF8F4
:103E00000346002B01D0012300E000231846403771
:103E1000BD4680BDA01C002080B594B000AF786086
:103E20004FF48073BB6285233B610023FB62002358
:103E30003B634FF080737B6300237B620123BB6392
:103E40000023FB6300233B6400237B6407F1100322
:103E500041F2883219462A4804F058F90346002BEB
:103E600001D0012347E007F10F0341F288321946E0
:103E7000234804F040FA0346002B01D001233AE026
:103E80001F4800F03FF80346002B01D0012332E029
:103E900081233B61FB7B5BB203F00F035AB2F0233B
:103EA000FB64FB6C93FAA3F3BB64BB6CB3FA83F3C0
:103EB0000A2101FA03F35BB213435BB2DBB2FB737B
:103EC00007F1100341F2883219460D4804F01EF93B
:103ED0000346002B01D001230DE007F10F0341F24F
:103EE00088321946064804F071F90346002B01D0C8
:103EF000012300E0002318465037BD4680BD00BFB7
:103F0000A01C002080B596B000AF78604FF480739D
:103F1000BB6306233B620023FB6300233B64002357
:103F20007B6400237B630023FB6400233B65002349
:103F30007B6507F1200341F288321946164804F0E8
:103F4000E5F80346002B01D0012320E00223BB60EB
:103F50000223FB600023BB6101237B6110233B61D3
:103F60004FF48003FB6105233B624FF080737B6459
:103F700007F1080207F1200141F28833064804F0F6
:103F80005AFA0346002B01D0012300E00023184613
:103F90005837BD4680BD00BFA01C002080B596B03C
:103FA00000AF786039604FF48073BB6305233B62D8
:103FB0000023FB6300233B644FF080737B6400238A
:103FC0007B630023FB6400233B6500237B650023A8
:103FD000BB600123FB600023BB6101237B611023D5
:103FE0003B614FF48003FB6107F1080207F12001F8
:103FF0003B68064804F01FFA0346002B01D001235A
:1040000000E0002318465837BD4680BDA01C0020A4
:1040100080B400AF174A174BD3F8883043F47003CD
:10402000C2F88830144A144B1B6843F00103136034
:10403000114B00229A60104A0F4B1B6823F0A853C3
:1040400023F4102313600C4B4FF48052DA600A4AB9
:10405000094B1B6823F480231360074B00229A61ED
:10406000044B4FF000629A6000BFBD465DF8047BD0
:10407000704700BF00ED00E00010024080B500AFC7
:10408000032000F041F9002000F006F8FDF774FB72
:104090000023184680BD000080B582B000AF786074
:1040A000094B1B68094AA2FB03239B09184600F031
:1040B0006EF9002279684FF0FF3000F030F90023EC
:1040C00018460837BD4680BD3C000020D34D621025
:1040D00080B400AF044B1B680133034A136000BF78
:1040E000BD465DF8047B7047E41C002080B400AF3F
:1040F000034B1B681846BD465DF8047B704700BF44
:10410000E41C002080B584B000AF7860FFF7EEFFBC
:10411000B8607B68FB60FB68B3F1FF3F02D0FB68CF
:104120000133FB6000BFFFF7E1FF0246BB68D21A14
:10413000FB689A42F7D300BF1037BD4680BD000030
:1041400080B485B000AF78607B6803F00703FB6044
:104150000C4BDB68BB60BA684FF6FF031340BB60D3
:10416000FB681A02BB68134343F0BF6343F4003398
:10417000BB60044ABB68D36000BF1437BD465DF81E
:10418000047B704700ED00E080B400AF044BDB68B7
:104190001B0A03F007031846BD465DF8047B704711
:1041A00000ED00E080B483B000AF0346FB71094925
:1041B00097F907305B09FA7902F01F02012000FA33
:1041C00002F241F8232000BF0C37BD465DF8047BA6
:1041D000704700BF00E100E080B483B000AF034649
:1041E000FB71094997F907305B09FA7902F01F0260
:1041F000012000FA02F2203341F8232000BF0C37DF
:10420000BD465DF8047B704700E100E080B483B0F8
:1042100000AF03463960FB7197F90730002B0BDACA
:104220000D49FB7903F00F03043B3A68D2B2120147
:10423000D2B20B441A7609E0084997F907303A6878
:10424000D2B21201D2B20B4483F8002300BF0C3764
:10425000BD465DF8047B704700ED00E000E100E042
:1042600080B489B000AFF860B9607A60FB6803F091
:104270000703FB61FB69C3F10703042B28BF042379
:10428000BB61FB690433062B02D9FB69033B00E0E9
:1042900000237B610122BB6902FA03F35A1EBB684B
:1042A0001A407B699A4001217B6901FA03F3591E88
:1042B0007B680B40134318462437BD465DF8047BEA
:1042C0007047000080B582B000AF78607B68013B2A
:1042D000B3F1807F01D301230FE00A4A7B68013BE1
:1042E00053600F214FF0FF30FFF790FF054B002286
:1042F0009A60044B07221A60002318460837BD460F
:1043000080BD00BF10E000E080B582B000AF7860F3
:104310007868FFF715FF00BF0837BD4680BD80B540
:1043200086B000AF0346B9607A60FB7300237B61FF
:10433000FFF72AFF78617A68B9687869FFF790FF1C
:10434000024697F90F3011461846FFF75FFF00BF8E
:104350001837BD4680BD80B582B000AF0346FB7103
:1043600097F907301846FFF71DFF00BF0837BD4615
:1043700080BD80B582B000AF0346FB7197F907306E
:104380001846FFF729FF00BF0837BD4680BD80B53E
:1043900082B000AF78607868FFF794FF0346184654
:1043A0000837BD4680BD000080B483B000AF7860A0
:1043B0007B68042B06D1094A084B1B6843F00403B1
:1043C000136005E0054A054B1B6823F004031360E6
:1043D00000BF0C37BD465DF8047B704710E000E07D
:1043E00080B500AF00F002F800BF80BD80B400AF20
:1043F00000BFBD465DF8047B704780B582B000AF5A
:1044000078607B68002B01D1012314E07B681B7965
:10441000DBB2002B05D17B6800225A717868FCF76B
:1044200019F97B6802221A717B6800221A617B6885
:1044300001221A71002318460837BD4680BD80B599
:1044400088B000AFF860B9607A600023FB61002398
:10445000BB6100237B61FB685B79012B01D10223E7
:10446000EFE0FB6801225A71FB6802221A71BB68F7
:104470001B68042B6CD17B68002B37D1FFF736FE0D
:10448000786111E0FFF732FE02467B69D31A012BF7
:104490000AD9FB681B6943F00802FB681A61FB68D4
:1044A00003221A710323CCE0FB681B685B6B03F4E7
:1044B0000043002BE6D10120FFF724FEFB681B68B8
:1044C000BA6892691A641EE0FFF710FE02467B6923
:1044D000D31A012B0AD9FB681B6943F00802FB6859
:1044E0001A61FB6803221A710323AAE0FB681B68A8
:1044F0005B6B002BE8DB0120FFF704FEFB681B6809
:10450000BA6892695A64FB681B68FA681268916C11
:1045100040F2FF307A6800FA02F2D2431140BA68E2
:10452000D0697A6800FA02F20A439A64FB681B6851
:10453000FA681268D16CFF207A6800FA02F2D2435E
:104540001140BA68106A7A6800FA02F20A43DA6423
:10455000BB681B69012B19D1FB681B689B6BFB6156
:104560001F227B6802FA03F3DB43FA691340FB6105
:10457000BB685B69BB61BA697B6802FA03F3FA69DD
:104580001343FB61FB681B68FA699A63FB681B684D
:10459000DB6BFB6107227B6802FA03F3DB43FA69FA
:1045A0001340FB61BB681A68BB689B681A43BB6811
:1045B000DB681343BB61BA697B6802FA03F3FA69EB
:1045C0001343FB61FB681B68FA69DA63FB681B68CD
:1045D000FA68126811684FF480407A6800FA02F2B3
:1045E000D2430A401A60FB681B681B68FB6140F6F7
:1045F000FC727B6802FA03F3DB43FA691340FB6148
:10460000BB685B68BB61BA697B6802FA03F3FA694D
:104610001343FB61FB681B68FA691A60FB681B683F
:10462000FA6812681168C0207A6800FA02F2D24370
:104630000A401A60FB6801221A71FB6800225A7155
:10464000002318462037BD4680BD000080B582B0EB
:1046500000AF78607B68002B01D10123ACE07B6860
:104660001B68184600F0B2F80246554B53F822304A
:10467000002B01D001239FE07868FCF77DF8514BB7
:104680001B6801334F4A13604E4B1B68012B25D129
:104690004D4A4D4B1B6823F0804313604A494A4BF7
:1046A0001A687B689B6813430B60474A464B1B683C
:1046B00023F47F0313607B681B79012B08D14249E7
:1046C000414B1A687B68DB68013B1B0413430B609A
:1046D0003D4A3D4B1B6843F0004313607B681B68F9
:1046E0007A681268126822F471421A607B681B684B
:1046F0007A68126811687A6810697A68526910439A
:104700007A68926902430A431A607B681B687A6878
:104710001268126822F00F021A607B681B687A68C0
:10472000126811687A68D0697A68126A02430A438B
:104730001A607B681B687A681268926822F45F02CC
:104740009A607B681B687A68126891687A68506A18
:104750007A68926A013A120402430A439A607B68BB
:104760001B687A681268526802F007025A607B6818
:104770001B687A68126851687A68D26A10027A688F
:10478000126BD20002430A435A607B681B687A6846
:104790001268126842F080021A607B68012283F876
:1047A00034207B681B68184600F010F80146044A64
:1047B0007B6842F82130002318460837BD4680BD8B
:1047C00064010020600100200060014080B485B0D9
:1047D00000AF7860FF23FB607B681E4A934202D1E2
:1047E0000023FB602FE07B681B4A934202D1012328
:1047F000FB6028E07B68194A934202D10223FB60E8
:1048000021E07B68164A934202D10323FB601AE041
:104810007B68144A934202D10423FB6013E07B6857
:10482000114A934202D10523FB600CE07B680F4ADA
:10483000934202D10623FB6005E07B680C4A934259
:1048400001D10723FB60FB6818461437BD465DF8AD
:10485000047B7047006001402060014040600140DF
:104860006060014080600140A0600140C060014084
:10487000E060014080B485B000AF78600023FB6049
:104880007B68002B01D101239CE07B681B681A46E2
:104890004F4B9A420FD87B681B681A464D4B134406
:1048A0004D4AA2FB03231B099A007B685A647B686C
:1048B0004A4A1A640EE07B681B681A46484B134448
:1048C000454AA2FB03231B099A007B685A647B6854
:1048D000444A1A647B68022283F825207B681B689F
:1048E0001B68FB60FB6823F4FF4323F07003FB604D
:1048F0007B689A687B68DB681A437B681B691A438C
:104900007B685B691A437B689B691A437B68DB6938
:104910001A437B681B6A1343FA681343FB607B6886
:104920001B68FA681A607B689B68B3F5804F31D0CA
:104930007B681B6C294A934216D12B492A4B1A6873
:104940007B685B6C0F2000FA03F3DB4313400B60C2
:104950002548254B1A687B6859687B685B6C01FAAF
:1049600003F31343036015E02049204B1A687B686A
:104970005B6C0F2000FA03F3DB4313400B601B4812
:104980001A4B1A687B6859687B685B6C01FA03F301
:10499000134303607B680022DA627B6800221A639B
:1049A0007B6800225A637B6800229A637B6800223E
:1049B000DA637B68012283F825207B68002283F874
:1049C0002420002318461437BD465DF8047B704749
:1049D00007040240F8FFFDBFCDCCCCCC0000024064
:1049E000F8FBFDBF00040240A8000240A8040240FA
:1049F00080B483B000AF78607B68002B01D10123C5
:104A000060E07B681B687A681268126822F0010215
:104A10001A607B681B681A462D4B9A420FD87B6838
:104A20001B681A462B4B13442B4AA2FB03231B097A
:104A30009A007B685A647B68284A1A640EE07B6897
:104A40001B681A46264B1344234AA2FB03231B0967
:104A50009A007B685A647B68224A1A647B681B68E8
:104A600000221A607B681B6C7A68526C012101FA83
:104A700002F25A607B681B6C184A93420BD11A49A8
:104A8000194B1A687B685B6C0F2000FA03F3DB4359
:104A900013400B600AE01549144B1A687B685B6C85
:104AA0000F2000FA03F3DB4313400B607B68002206
:104AB000DA637B68002283F825207B68002283F874
:104AC0002420002318460C37BD465DF8047B704750
:104AD00007040240F8FFFDBFCDCCCCCC0000024063
:104AE000F8FBFDBF00040240A8000240A8040240F9
:104AF00080B586B000AFF860B9607A603B60002393
:104B0000FB75FB6893F82430012B01D102234BE0A5
:104B1000FB68012283F82420FB6893F82530DBB280
:104B2000012B3AD1FB68022283F82520FB68002282
:104B3000DA63FB681B68FA681268126822F00102E7
:104B40001A603B687A68B968F86800F045F9FB6854
:104B50001B6B002B08D0FB681B68FA681268126890
:104B600042F00E021A600FE0FB681B68FA681268D8
:104B7000126822F004021A60FB681B68FA68126867
:104B8000126842F00A021A60FB681B68FA68126831
:104B9000126842F001021A6005E0FB68002283F807
:104BA00024200223FB75FB7D18461837BD4680BDC7
:104BB00080B485B000AF78600023FB737B68002B66
:104BC00001D1012320E07B681B687A6812681268B3
:104BD00022F00E021A607B681B687A6812681268FD
:104BE00022F001021A607B681B6C7A68526C01210A
:104BF00001FA02F25A607B68012283F825207B6863
:104C0000002283F82420FB7B18461437BD465DF84C
:104C1000047B704780B584B000AF78600023FB73DD
:104C20007B6893F82530DBB2022B05D07B68042229
:104C3000DA630123FB7327E07B681B687A681268DC
:104C4000126822F00E021A607B681B687A6812688C
:104C5000126822F001021A607B681B6C7A68526C41
:104C6000012101FA02F25A607B68012283F82520B3
:104C70007B68002283F824207B689B6B002B03D089
:104C80007B689B6B78689847FB7B18461037BD465E
:104C900080BD80B584B000AF78607B681B6C1B68FA
:104CA000FB607B681B681B68BB607B685B6C0422D5
:104CB0009A40FB681340002B24D0BB6803F0040328
:104CC000002B1FD07B681B681B6803F02003002BA0
:104CD00007D17B681B687A681268126822F00402A8
:104CE0001A607B681B6C7A68526C042101FA02F22C
:104CF0005A607B681B6B002B69D07B681B6B7868E4
:104D0000984764E07B685B6C02229A40FB68134022
:104D1000002B2CD0BB6803F00203002B27D07B684C
:104D20001B681B6803F02003002B0BD17B681B68FA
:104D30007A681268126822F00A021A607B680122FF
:104D400083F825207B681B6C7A68526C022101FA7B
:104D500002F25A607B68002283F824207B68DB6AB9
:104D6000002B34D07B68DB6A786898472FE07B683B
:104D70005B6C08229A40FB681340002B28D0BB686C
:104D800003F00803002B23D07B681B687A68126845
:104D9000126822F00E021A607B681B6C7A68526CF3
:104DA000012101FA02F25A607B680122DA637B6812
:104DB000012283F825207B68002283F824207B6869
:104DC0005B6B002B04D07B685B6B7868984700BFF7
:104DD00000BF1037BD4680BD80B485B000AFF8601D
:104DE000B9607A603B60FB681B6CFA68526C012109
:104DF00001FA02F25A60FB681B683A685A60FB6865
:104E00009B68102B08D1FB681B687A689A60FB6866
:104E10001B68BA68DA6007E0FB681B68BA689A60CA
:104E2000FB681B687A68DA6000BF1437BD465DF81E
:104E3000047B704780B487B000AF7860396000238E
:104E40007B610023FB6000233B617FE13B681A68C4
:104E500001217B6901FA03F31340FB60FB68002B1F
:104E600000F071813B685B68022B03D03B685B6894
:104E7000122B23D17B69DA087B68083253F8223081
:104E80003B617B6903F007039B000F2202FA03F3E7
:104E9000DB433A6913403B613B681A697B6903F065
:104EA00007039B0002FA03F33A6913433B617B69F2
:104EB000DA087B680832396943F822107B681B687E
:104EC0003B617B695B00032202FA03F3DB433A692F
:104ED00013403B613B685B6803F003027B695B0046
:104EE00002FA03F33A6913433B617B683A691A603B
:104EF0003B685B68012B0BD03B685B68022B07D0DB
:104F00003B685B68112B03D03B685B68122B30D188
:104F10007B689B683B617B695B00032202FA03F3B9
:104F2000DB433A6913403B613B68DA687B695B00AD
:104F300002FA03F33A6913433B617B683A699A606A
:104F40007B685B683B6101227B6902FA03F3DB4308
:104F50003A6913403B613B685B681B0903F001023F
:104F60007B6902FA03F33A6913433B617B683A6950
:104F70005A603B685B6803F00303032B18D17B681E
:104F8000DB6A3B6101227B6902FA03F3DB433A6986
:104F900013403B613B685B68DB0803F001027B69FF
:104FA00002FA03F33A6913433B617B683A69DA62B8
:104FB0007B68DB683B617B695B00032202FA03F3D9
:104FC000DB433A6913403B613B689A687B695B004D
:104FD00002FA03F33A6913433B617B683A69DA608A
:104FE0003B685B6803F08053002B00F0AC805E4AA6
:104FF0005D4B1B6E43F0010313665B4B1B6E03F0AE
:105000000103BB60BB68594A7B699B08023352F8B5
:1050100023303B617B6903F003039B000F2202FAFC
:1050200003F3DB433A6913403B617B68B3F1904F74
:1050300025D07B684E4A93421FD07B684D4A9342ED
:1050400019D07B684C4A934213D07B684B4A9342F9
:105050000DD07B684A4A934207D07B68494A934205
:1050600001D106230CE007230AE0052308E004230E
:1050700006E0032304E0022302E0012300E0002312
:105080007A6902F00302920093403A6913433B614C
:1050900036497B699B0802333A6941F823203A4B31
:1050A0001B683B61FB68DB433A6913403B613B682B
:1050B0005B6803F48033002B03D03A69FB68134329
:1050C0003B61314A3B6913602F4B5B683B61FB6876
:1050D000DB433A6913403B613B685B6803F4003390
:1050E000002B03D03A69FB6813433B61264A3B69B6
:1050F0005360254B9B683B61FB68DB433A69134077
:105100003B613B685B6803F48013002B03D03A6972
:10511000FB6813433B611C4A3B6993601A4BDB6895
:105120003B61FB68DB433A6913403B613B685B686A
:1051300003F40013002B03D03A69FB6813433B616F
:10514000114A3B69D3607B6901337B613B681A6814
:105150007B6922FA03F3002B7FF478AE00BF1C3783
:10516000BD465DF8047B704700100240000001401E
:105170000004004800080048000C004800100048E7
:1051800000140048001800480004014080B487B0B3
:1051900000AF7860396000237B6100233B6100230E
:1051A000FB60CDE001227B699A403B6813403B6184
:1051B0003B69002B00F0C1807B681A687B695B004B
:1051C000032101FA03F31A437B681A607B69DA084A
:1051D0007B69D9087B68083153F821107B6903F09B
:1051E00007039B000F2000FA03F3DB4319407B68A1
:1051F000083243F822107B689A687B695B000321C0
:1052000001FA03F3DB431A407B689A607B685A68B3
:1052100001217B6901FA03F3DB431A407B685A6082
:105220007B68DA687B695B00032101FA03F3DB43E7
:105230001A407B68DA607B68DA6A01217B6901FACF
:1052400003F3DB431A407B68DA62444A7B699B08BC
:10525000023352F82330FB607B6903F003039B00A9
:105260000F2202FA03F3FA681340FB607B68B3F184
:10527000904F25D07B683A4A93421FD07B68394AC9
:10528000934219D07B68384A934213D07B68374ADF
:1052900093420DD07B68364A934207D07B68354AEB
:1052A000934201D106230CE007230AE0052308E01E
:1052B000042306E0032304E0022302E0012300E0CC
:1052C00000237A6902F00302920003FA02F2FB68FB
:1052D0009A4232D17B6903F003039B000F2202FA4A
:1052E00003F3FB601D487B699B081C497A6992089F
:1052F000023251F82210FA68D2430A40023340F8D1
:1053000023201D491C4B1A683B69DB4313400B608B
:105310001949194B5A683B69DB4313404B601649E6
:10532000154B9A683B69DB4313408B601249124B63
:10533000DA683B69DB431340CB607B6901337B61F7
:105340003A687B6922FA03F3002B7FF42BAF00BF8E
:105350001C37BD465DF8047B704700BF000001406C
:105360000004004800080048000C004800100048F5
:1053700000140048001800480004014080B485B0C3
:1053800000AF78600B467B807B681A697B8813408E
:10539000002B02D00123FB7301E00023FB73FB7B96
:1053A00018461437BD465DF8047B704780B483B05F
:1053B00000AF78600B467B8013467B707B78002BB8
:1053C00003D07A887B689A6102E07A887B689A6267
:1053D00000BF0C37BD465DF8047B704780B483B0D6
:1053E00000AF78600B467B807B685A697B885A40A7
:1053F0007B685A6100BF0C37BD465DF8047B70477F
:10540000F0B58DB00AAF78607B68002B01D1012325
:1054100048E07B6893F89132DBB2002B06D17B68C1
:10542000002283F890227868FCF7E8FA7B68032270
:1054300083F891227B681B68184607F0CEF97B68D9
:105440001B683B607E686D4606F110040FCC0FC5EB
:105450000FCC0FC594E8030085E80300331D0ECB85
:10546000386807F08BF97B681B680121184607F044
:10547000C5F97B681B683B607E686D4606F11004C9
:105480000FCC0FC50FCC0FC594E8030085E80300CF
:10549000331D0ECB386807F0A3FA7B68012283F82E
:1054A0009122002318460C37BD46F0BD90B589B057
:1054B00004AF7860084611461A460346FB700B4657
:1054C000BB7013467B700023FB737B6893F89032AC
:1054D000012B01D102236CE07B68012283F890222A
:1054E000FA78796813469B001344DB000B44383389
:1054F0007A781A70FA78796813469B001344DB00B7
:105500000B4440333A8D1A80FA78796813469B0031
:105510001344DB000B443933FA781A70FA7879684F
:1055200013469B001344DB000B443F3397F82420C1
:105530001A70FA78BB7803F07F03D8B27968134603
:105540009B001344DB000B443A3302461A70FA788E
:1055500097F90230DBB2DB09DBB2184679681346F3
:105560009B001344DB000B443B3302461A70FA786D
:10557000796813469B001344DB000B443C3397F8D7
:1055800020201A707B6818687C78BA78F9783B8D8F
:10559000029397F82430019397F820300093234624
:1055A00007F064FB0346FB737B68002283F89022BC
:1055B000FB7B18461437BD4690BD80B584B000AF64
:1055C00078600B46FB700023FB737B6893F8903286
:1055D000012B01D102230FE07B68012283F8902286
:1055E0007B681B68FA781146184607F042FD7B6815
:1055F000002283F89022FB7B18461037BD4680BD01
:1056000080B582B000AF7860084611461A4603465E
:10561000FB700B46BB7013467B70FA7879681346B3
:105620009B001344DB000B443B33BA781A70FA78C2
:10563000796813469B001344DB000B443F337A78B0
:105640001A703B7C002B0AD1FA78796813469B00CC
:105650001344DB000B44423303221A7009E0FA784A
:10566000796813469B001344DB000B44423302224B
:105670001A707B78032B00F2048101A252F823F008
:10568000915600086758000829570008DD570008A0
:105690003B7C012B40F0F280BB78002B40F0EE8089
:1056A0003B8B002B09D1FA78796813469B00134491
:1056B000DB000B44513301221A70FA7879681346E3
:1056C0009B001344DB000B4451331B78002B0AD1A1
:1056D000FA78796813469B001344DB000B4442338D
:1056E00000221A7009E0FA78796813469B00134487
:1056F000DB000B44423302221A70FA7879681346B1
:105700009B001344DB000B445C331B78022B00F03E
:10571000B580FA78796813469B001344DB000B448C
:105720003D333A7F1A70A9E0BB78002B35D1FA7867
:10573000796813469B001344DB000B4451331B78FC
:10574000002B0AD1FA78796813469B001344DB00DA
:105750000B44423300221A7009E0FA787968134644
:105760009B001344DB000B44423302221A70FA7888
:10577000796813469B001344DB000B445C331B78B1
:10578000022B7DD0FA78796813469B001344DB0026
:105790000B443D333A7F1A7072E0FA787968134609
:1057A0009B001344DB000B4450331B78002B0AD1C1
:1057B000FA78796813469B001344DB000B444233AC
:1057C00000221A705CE0FA78796813469B00134453
:1057D000DB000B44423302221A7051E0BB78002BED
:1057E00020D1FA78796813469B001344DB000B4400
:1057F00051331B78002B0AD1FA78796813469B0045
:105800001344DB000B44423300221A7039E0FA786B
:10581000796813469B001344DB000B444233022299
:105820001A702EE0FA78796813469B001344DB0067
:105830000B4450331B78002B0AD1FA787968134651
:105840009B001344DB000B44423300221A7018E023
:10585000FA78796813469B001344DB000B4442330B
:1058600002221A700DE0FA78796813469B001344FF
:10587000DB000B44423300221A7002E000BF00E05C
:1058800000BFFA78796813469B001344DB000B4491
:1058900044337A691A60FA78398B786813469B002A
:1058A0001344DB00034448331960FA7879681346DF
:1058B0009B001344DB000B445C3300221A70FA781F
:1058C000796813469B001344DB000B444C330022E1
:1058D0001A60FA78796813469B001344DB000B4486
:1058E0003933FA781A70FA78796813469B001344B2
:1058F000DB000B445D3300221A707B681868FA786D
:1059000013469B001344DB0038337A68D1187B6858
:105910001B69DBB21A4607F08FFA034618460837B0
:10592000BD4680BD80B586B000AF78607B681B68DF
:105930003B6100237B610023FB607B681B6818468A
:1059400007F03FF80346012B40F0EB807B681B68B3
:10595000184607F021F80346002B00F0E1807B6831
:105960001B68184607F018F8034603F40013B3F554
:10597000001F04D17B681B684FF400125A617B68DA
:105980001B68184607F008F8034603F48013B3F5C4
:10599000801F04D17B681B684FF480125A617B68BA
:1059A0001B68184606F0F8FF034603F08063B3F166
:1059B000806F04D17B681B684FF080625A617B68FE
:1059C0001B68184606F0E8FF034603F00203022BAB
:1059D00003D17B681B6802225A617B681B681846EA
:1059E00006F0DAFF034603F00053B3F1005F18D16D
:1059F0003B6903F588631A463B6903F588631B68B6
:105A000023F02E0313607868FCF766F87B681B6848
:105A10000121184607F06CF87B681B684FF00052B4
:105A20005A617B681B68184606F0B6FF034603F010
:105A30008073B3F1807F02D1786801F041F87B6810
:105A40001B68184606F0A8FF034603F00803082B5E
:105A500006D17868FCF724F87B681B6808225A6135
:105A60007B681B68184606F097FF034603F0007337
:105A7000B3F1007F36D17B681B68184607F0EAFA5D
:105A8000F86000237B6123E001227B6902FA03F3C3
:105A90001A46FB681340002B17D07B695A013B69FB
:105AA000134403F5A0631B6803F40043002B06D0E6
:105AB0007B69DBB21946786800F0CAF805E07B69BB
:105AC000DBB21946786800F00CFC7B6901337B611E
:105AD0007B689A687B699A42D6D87B681B684FF0CE
